:03000000020800F3
:0C080000787FE4F6D8FD75810C020847F3
:07092E00010A0002080000AD
:1008F600E4FDFCC3ED9FEE6480F8EC64809850152F
:10090600E4FBFA0BBB00010AEB64734A70F50DBDFC
:0509160000010C80DE71
:01091B0022B9
:10091C005389F0438901E4F58CF58AD2A9D2AFD280
:02092C008C221B
:03000B0002088C5C
:10088C00C0E0C0D075D000C007C28C30A010C2A090
:10089C00C374FF950AF509E49400F508800AD2A008
:1008AC00750800850A09E508FFC374FF9FF58CC322
:1008BC0074FF9509F58AC28DD28CD007D0D0D0E0C8
:0108CC0032F9
:0308CD0012091CF1
:1008D000050CE50C7002050B7F0A7E001208F685F8
:1008E0000C0AC3E50C94FFE50B6480948040E1E4BE
:0408F000F50BF50C03
:0208F40080DAA8
:10080C000208CDE493A3F8E493A34003F68001F22D
:10081C0008DFF48029E493A3F85407240CC8C333ED
:10082C00C4540F4420C8834004F456800146F6DFBC
:10083C00E4800B010204081020408090092EE47E15
:10084C00019360BCA3FF543F30E509541FFEE493B1
:10085C00A360010ECF54C025E060A840B8E493A378
:10086C00FAE493A3F8E493A3C8C582C8CAC583CAA3
:10087C00F0A3C8C582C8CAC583CADFE9DEE780BE5B
:0109350000C1
:00000001FF
